:04200000D9EF10F014
:08200800780E0609BA6EFE0E07
:10201000BB6E94948B940C0EBD6EB76AB66A010EBB
:10202000B96E0F015991C150F00BC16E010E5B6F7B
:10203000000E5F6F5C6F5D6F5E6FC050C00B070975
:10204000C06EC09EC2800001EAEF10F08E0E006EDE
:1020500007C001F006C002F0036A015209E102C0A4
:1020600001F0026A080E005E015202E1006A08D027
:10207000D89001BE04D0023601360006F9D7019E81
:10208000F7EF10F00650D8B471D0006E0A50D8B4F3
:102090006DD0002604E3810E002668E204D07F0E96
:1020A000005E64E363E007C00EF00B500E1A078E6B
:1020B0000B8E09500D02F4CF10F008500C02F4CF33
:1020C00003F0F3CF0FF00D02F3501026F4500F225F
:1020D000000E032209500C02F3501026F4500F2278
:1020E000000E026A0322022207500D02F3500F264F
:1020F000F4500322000E022207500C02F350032674
:10210000F4500222000E016A012209500B02F35022
:102110000F26F4500322000E0222012208500B0267
:10212000F3500326F4500222000E012207500B0246
:10213000F3500226F4500122002A01BE05D00F36CA
:102140000336023601360006000E0FAE0AD0032A0F
:1021500002220122015005E1025003E1035001E196
:10216000002A0EBE018E0EAE019E04D0006A016AE6
:10217000026A036A08EF11F08E0E006E0550005ED1
:1021800006C002F007C001F0028E005209E0D890AC
:10219000025202E1015204E002320132002EF7D76E
:1021A00006AE05D0011E021E012AD8B4022A11EF84
:1021B00011F0F86AD09E700ED36ED26A9B6A0F013E
:1021C0005B6B5C6B5D6B5E6B5F6B9A6A996A986A1E
:1021D00000011AD7000E016EC250830B0110C26EAF
:1021E000C282C2B2FED7076AC4CF06F02FD703C09F
:1021F00009F002C008F001C007F000C006F00A0EA6
:102200000D6ED70E0C6E430E0B6E7F0E0A6E3AD714
:1022100003C008F002C007F001C006F000C005F0DE
:0E222000ABD701C004F004C0BEFFD4D703004A
:020000040030CA
:0E00000023C85E3C00D3A1000FC00FE00F40EC
:00000001FF
;PIC18F45K50
;CRC=3B39  CREATED="01-dic.-20 12:18"
